:100000000C942A000C9434000C9434000C943400AA
:100010000C9434000C9434000C9434000C94340090
:100020000C9434000C9434000C9434000C94340080
:100030000C9434000C9434000C9434000C94340070
:100040000C9434000C9434000C9434000C94340060
:100050000C94340011241FBECFE5D8E0DEBFCDBF25
:100060000E9436000C944D000C940000B89AB99A86
:1000700020E931E0C09AC19888E893E1F90131970D
:10008000F1F70197D9F7C098C19A88E893E1F9018F
:0E0090003197F1F70197D9F7EDCFF894FFCF34
:00000001FF
